:020000020000FC
:0200000060C5D9
:02001C009EC57F
:1000400015C0002700936D0371D05CE061E040E0D3
:1000500080D043954032E1F708951F931091260117
:10006000E8D0B4D0D9D09DD01F9108950F930FB789
:100070000F930F921F921F932F933F937F93EF93B2
:10008000FF9330916D0320E5329FE02DF12D222763
:10009000E20FF21FE35CFE4F20E511902B9810FC5D
:1000A0002B9A1D9A1D9A2A95C1F72B981D9A1D9A75
:1000B00070E4032F002319F076950A95E9F72B9A3F
:1000C00076FF2B981D9A1D9A2B9A75FF2B981D9AD7
:1000D0001D9A2B9A74FF2B981D9A1D9A2B9A73FFC9
:1000E0002B981D9A1D9A2B9A72FF2B981D9A1D9A78
:1000F0002B9A71FF2B981D9A1D9A2B9A70FF2B98A3
:100100001D9A1D9A1C9A2C983395373009F4332781
:1001100030936D03FF91EF917F913F912F911F914C
:100120001F900F900F910FBF0F911895EF93FF93B2
:10013000AF93BF930F93EDE3F1E0A0E3B2E00027AC
:1001400001931197E9F70F91BF91AF91FF91EF9153
:1001500008953F934F935F93EF93FF930F921F92F6
:10016000573038F43FE4341B432F36E0351B532F10
:1001700006C037E2341B432F3DE0351B532F30E5DB
:10018000539FE02DF12D3327E40FF31FE35CFE4F67
:1001900060831F900F90FF91EF915F914F913F917E
:1001A00008950F934F935F9300E05DE040E060E0BF
:1001B000D0DF43954032E1F7009120015DE0402F10
:1001C00061E0C7DF5F914F910F9108950F931F93E7
:1001D0004F935F936F93EF93FF93E0E0F1E040E084
:1001E00050E060E0B6DF53955C30E1F711911F3FBE
:1001F00041F01C3010F01C50FCCF5BE0511B61E063
:10020000A8DF4395403261F7FF91EF916F915F91C5
:100210004F911F910F910895AF934F935F93A091CA
:100220002101A39541E255E044D05F914F91AF91F8
:1002300008952F933F937F938F939F93AF934F9303
:100240005F93EF93FF9327E0EDE3F1E00027008356
:100250000183028300A701A702A730E5E30F33273C
:10026000F31F2A95A1F777278827912F943618F046
:1002700094567395FBCF9A3018F09A508395FBCF24
:10028000772321F0A72F45E250E013D0A82F45E2B5
:1002900055E00FD0A92F45E25AE00BD0FF91EF9126
:1002A0005F914F91AF919F918F917F913F912F914E
:1002B0000895EF93FF932F933F934F935F93E2E063
:1002C000F3E024E0A29FE00DF11D24E0359160E011
:1002D00032FD61E03EDF439560E031FD61E039DFF2
:1002E000439560E030FD61E034DF4A954A955395CF
:1002F0002A9561F75F914F913F912F91FF91EF9177
:100300000895070505070602020707010607070209
:10031000010705050701070403070704070707018D
:10032000020207050707070507013898399800E614
:1003300000937C0007E800937A002098289A22987E
:100340002A9A0027009328010093290100932A018B
:1003500000932C0100932B0100932D0100932E019B
:1003600000932F010093300100933101009332017B
:10037000009333010093340100933501009336015B
:1003800000933701009338010093390100933A013B
:1003900000933B0100933C01089537D0A2D0DBC30A
:1003A00002D00FD008950F930027009328010093E7
:1003B000290100932A0100932C0100932B010F9136
:1003C00008950F93002700932D0100932E010093B1
:1003D0002F0100933001009331010093320100930B
:1003E00033010093340100933501009336010093EB
:1003F0003701009338010093390100933A010093CB
:100400003B0100933C010F9108950F931F932F938D
:1004100000271A9901E010912801011769F0009353
:100420002801013049F01091270121E01227109393
:10043000270110FF22D30DC020E041D0303CB0F4A2
:10044000303458F021E03BD0303CC8F4303408F16F
:100450002AC02F911F910F910895002700932A0120
:100460000093290100932C01B9D1F3CF0027009309
:100470002A010093290100932B019DD1EACF002787
:1004800000932A0100932C0100932B01DFD1BFD3ED
:10049000E0CF00270093290100932C0100932B014A
:1004A000C2D1B1D3D6CF002700932A0100932901EE
:1004B00000932C0100932B01A8D3ABD3CACF0F9389
:1004C0002F70206620937C0000917A0000640093D6
:1004D0007A0000917A0006FDFCCF309179000F91EF
:1004E00008950FE00BB900EF0AB900004B9B0AC05A
:1004F0004A9B18C0499B26C0489B34C001C0089540
:1005000060DF089500EF0BB90FE00AB900004F9BC0
:1005100039C04E9B43C04D9B54C04C9B65C0F0CF2F
:100520000895089500EF0BB90FE00AB900004F9B42
:100530006EC04E9B7FC04D9B90C04C9BA1C0E0CF36
:100540000895089500EF0BB90FE00AB900004F9B22
:10055000AAC04E9BBBC04D9BCCC04C9BDDC0D0CF36
:100560000895089500EF0BB90FE00AB900004F9B02
:10057000DDC04E9BEEC04D9BFFC04C9B10C1C0CF59
:10058000089508950F932F9318E0209121010CE016
:10059000209F100D6ED12F910F9108950F932F93DF
:1005A00000913101002351F401E00093310114E086
:1005B000209121010CE0209F100D5BD12F910F9114
:1005C00008950F932F9300912E01002351F401E021
:1005D00000932E0110E0209121010CE0209F100DCE
:1005E00048D12F910F9108952F9300913701002347
:1005F00061F401E0009337010AD3209121012130F9
:1006000020F02A952093210107DE2F9108950F9362
:100610002F9300913501002351F401E0009335013F
:1006200019E0209121010CE0209F100D22D12F9183
:100630000F9108950F932F9300913201002351F4ED
:1006400001E00093320115E0209121010CE0209F90
:10065000100D0FD12F910F9108950F932F930091AB
:100660002F01002351F401E000932F0111E02091AC
:1006700021010CE0209F100DFCD02F910F910895C7
:100680002F9300912D01002361F401E000932D01CF
:10069000BAD220912101233020F423952093210107
:1006A000BBDD2F9108950F932F9300913601002306
:1006B00051F401E0009336011AE0209121010CE091
:1006C000209F100DD6D02F910F9108950F932F9347
:1006D00000913301002351F401E00093330116E04F
:1006E000209121010CE0209F100DC3D02F910F917C
:1006F00008950F932F9300913001002351F401E0EE
:100700000093300112E0209121010CE0209F100D98
:10071000B0D02F910F9108950F93009138010023CD
:1007200019F401E0009338010F9108950F932F936E
:1007300000913C01002351F401E000933C011BE0D7
:10074000209121010CE0209F100D93D02F910F914B
:1007500008950F932F9300913B01002351F401E082
:1007600000933B0117E0209121010CE0209F100D28
:1007700080D02F910F9108950F932F9300913A01FC
:10078000002351F401E000933A0113E0209121018C
:100790000CE0209F100D6DD02F910F9108950F93B5
:1007A00000913901002329F401E0009339011FEF82
:1007B00060D00F9108950F936F9360912C01613079
:1007C00051F061E060932C0104D2EBDC1CD200916B
:1007D000270100FF16D06F910F9108950F936F932B
:1007E00060912B01613051F061E060932B01FED1EB
:1007F000D8DC0DD20091270100FF03D06F910F913B
:100800000895EF93FF931F930F9310912001E0E061
:10081000F1E00027E10FF01F10810BD10F911F9124
:10082000FF91EF9108950F931F9300912A010023E8
:1008300051F401E000932A0110912601183C18F4AC
:10084000139520D1E0D11F910F9108950F931F931D
:1008500000912901002351F401E000932901109136
:1008600026011D3318F01A950DD1D1D11F910F918A
:100870000895EF93FF932F930F9320912001E0E0D1
:10088000F1E00027E20FF01F1083A0DCD2D00F911F
:100890002F91FF91EF9108957177BD70696A70642F
:1008A000CD5E7B597554B74F3E4B05470843453FD6
:1008B000B83B5E3834353732662FBD2C3A2ADB27F9
:1008C0009E2582238321A21FDC1D2E1C991A1B1931
:1008D000B3175E161C15ED13CF12C011C110D10F46
:1008E000EE0E170E4C0D8D0CD90B2E0B8E0AF60941
:1008F0006709DF086008E807C3099A0972094C090B
:1009000027090309E008BE089D087D085E08400825
:1009100022080608EA07CF07B5079B0782076A0780
:1009200052073B0724070E07F906E406CF06BB066D
:10093000A806940682066F065D064C063B062A064C
:100940001A060906FA05EA05DB05CC05BE05AF0562
:10095000A1059405860579056C055F0553054605D7
:100960003A052E05230517050C050105F604EC04D0
:10097000E104D704CD04C304B904AF04A5049C0466
:1009800093048A04810478046F0467045E045604A7
:100990004E0446043E0436042E0427041F041804A3
:1009A000110409040204FB03F503EE03E703E0036B
:1009B000DA03D303CD03C703C103BA03B403AE0301
:1009C000A903A3039D03970392038C038703810369
:1009D0007C03770371036C03670362035D035803B1
:1009E00053034E034A03450340033C0337033303D9
:1009F0002E032A03250321031D03190314031003E7
:100A00000C03080304030003FC02F802F502F102E0
:100A1000ED02282828FF282B2826242424FF23231E
:100A200023FF282828FF282B2826242424FF2323DB
:100A300023FF2F933F934F93EF93FF931F3FB1F00B
:100A40001033ACF4212F3327220F331FE8E9F8E0ED
:100A5000E20FF31F35914491409389003093880051
:100A6000189B04C000E40093800001C006D0FF91F1
:100A7000EF914F913F912F91089500E000938000F6
:100A8000299808950F932F933F93EF93FF9310931B
:100A90002601CFDB1C53212F3327220F331FE8EF12
:100AA000F8E0E20FF31F25913491F894209324018C
:100AB000309325017894FF91EF913F912F910F9101
:100AC000089500E00093270103E005BD01E00093D5
:100AD0006E0000E4009380000AE00093810002E0D1
:100AE0000093B00004E00093B10002E000937000B6
:100AF00008E10093B30019DC18D000E00093200156
:100B000003E00093210118E7BDDF04B1086304B9D5
:100B100005B1086305B995DA219A29983A9A42985D
:100B20003B9A43989ADA789416C0EF93FF93AF9369
:100B3000BF931F930F93A0E0B1E0E2E1FAE010E26F
:100B400005910D931A95E1F70F911F91BF91AF9108
:100B5000FF91EF91089521CCFECF0F931F932F9318
:100B60003F93EF93FF930FB70F93009122011091E2
:100B700023010F5F1F4F0093220110932301202FA9
:100B8000312F2858334108F00BDCE0912401F0911B
:100B900025010E171F07A0F00027009322010093E4
:100BA00023010091270100FF0BC010912001E0E01C
:100BB000F1E00027E10FF01F10813BDF0AD0F1DAEE
:100BC0000F910FBFFF91EF913F912F911F910F91C7
:100BD0001895009120010F3120F403950093200116
:100BE00003C0002700932001ECDB08950091200151
:100BF000013020F00A950093200103C00FE100931B
:100C00002001DFDB089542980895429A08954398A1
:060C10000895439A0895C7
:00000001FF
